{
  "contractName": "PoseManager",
  "abi": [
    {
      "inputs": [
        {
          "internalType": "uint256",
          "name": "",
          "type": "uint256"
        }
      ],
      "name": "contractNums",
      "outputs": [
        {
          "internalType": "uint256",
          "name": "",
          "type": "uint256"
        }
      ],
      "stateMutability": "view",
      "type": "function"
    },
    {
      "inputs": [
        {
          "internalType": "uint256",
          "name": "",
          "type": "uint256"
        }
      ],
      "name": "contracts",
      "outputs": [
        {
          "internalType": "uint256",
          "name": "id",
          "type": "uint256"
        },
        {
          "internalType": "address payable",
          "name": "poolAddress",
          "type": "address"
        },
        {
          "internalType": "address",
          "name": "creationOperator",
          "type": "address"
        },
        {
          "internalType": "uint256",
          "name": "operatorNums",
          "type": "uint256"
        }
      ],
      "stateMutability": "view",
      "type": "function"
    },
    {
      "inputs": [
        {
          "internalType": "uint256",
          "name": "",
          "type": "uint256"
        }
      ],
      "name": "opratorNums",
      "outputs": [
        {
          "internalType": "uint256",
          "name": "",
          "type": "uint256"
        }
      ],
      "stateMutability": "view",
      "type": "function"
    },
    {
      "inputs": [
        {
          "internalType": "uint256",
          "name": "",
          "type": "uint256"
        }
      ],
      "name": "registeredOperators",
      "outputs": [
        {
          "internalType": "uint256",
          "name": "id",
          "type": "uint256"
        },
        {
          "internalType": "string",
          "name": "excuteContractIp",
          "type": "string"
        },
        {
          "internalType": "string",
          "name": "privateKey",
          "type": "string"
        },
        {
          "internalType": "string",
          "name": "commandIp",
          "type": "string"
        },
        {
          "internalType": "string",
          "name": "teeEncryptionKey",
          "type": "string"
        },
        {
          "internalType": "string",
          "name": "contractAddress",
          "type": "string"
        }
      ],
      "stateMutability": "view",
      "type": "function"
    },
    {
      "inputs": [
        {
          "internalType": "uint256",
          "name": "id",
          "type": "uint256"
        },
        {
          "internalType": "string",
          "name": "excuteContractIp",
          "type": "string"
        },
        {
          "internalType": "string",
          "name": "privateKey",
          "type": "string"
        },
        {
          "internalType": "string",
          "name": "commandIp",
          "type": "string"
        },
        {
          "internalType": "string",
          "name": "teeEncryptionKey",
          "type": "string"
        },
        {
          "internalType": "string",
          "name": "contractAddress",
          "type": "string"
        }
      ],
      "name": "register",
      "outputs": [],
      "stateMutability": "nonpayable",
      "type": "function"
    },
    {
      "inputs": [
        {
          "internalType": "uint256",
          "name": "id",
          "type": "uint256"
        },
        {
          "internalType": "address payable",
          "name": "poolAddress",
          "type": "address"
        },
        {
          "internalType": "address",
          "name": "creationOperator",
          "type": "address"
        },
        {
          "internalType": "uint256",
          "name": "Oid",
          "type": "uint256"
        },
        {
          "internalType": "string",
          "name": "contractAddress",
          "type": "string"
        },
        {
          "internalType": "uint256",
          "name": "operatorNums",
          "type": "uint256"
        }
      ],
      "name": "initCreation",
      "outputs": [],
      "stateMutability": "nonpayable",
      "type": "function"
    },
    {
      "inputs": [
        {
          "internalType": "uint256",
          "name": "id",
          "type": "uint256"
        }
      ],
      "name": "watchDogResponse",
      "outputs": [],
      "stateMutability": "nonpayable",
      "type": "function"
    },
    {
      "inputs": [
        {
          "internalType": "uint256",
          "name": "id",
          "type": "uint256"
        }
      ],
      "name": "depositToContract",
      "outputs": [],
      "stateMutability": "payable",
      "type": "function"
    },
    {
      "inputs": [
        {
          "internalType": "address payable",
          "name": "receiver",
          "type": "address"
        }
      ],
      "name": "withdraw",
      "outputs": [],
      "stateMutability": "payable",
      "type": "function"
    },
    {
      "inputs": [
        {
          "internalType": "uint256",
          "name": "id",
          "type": "uint256"
        }
      ],
      "name": "verifyOpRepeadId",
      "outputs": [
        {
          "internalType": "bool",
          "name": "",
          "type": "bool"
        }
      ],
      "stateMutability": "view",
      "type": "function"
    },
    {
      "inputs": [
        {
          "internalType": "uint256",
          "name": "id",
          "type": "uint256"
        }
      ],
      "name": "verifyCoRepeadId",
      "outputs": [
        {
          "internalType": "bool",
          "name": "",
          "type": "bool"
        }
      ],
      "stateMutability": "view",
      "type": "function"
    }
  ],
  "bytecode": "0x608060405234801561001057600080fd5b50611897806100206000396000f3fe60806040526004361061009c5760003560e01c806351cff8d91161006457806351cff8d9146101c15780637b30aa47146101dd5780638cc6bd83146101f9578063a551c1b814610222578063d6a3861514610264578063ddebd346146102a15761009c565b80630e6cfc26146100a15780631432b4df146100ca5780633792e1b41461010757806345d5ac5714610144578063474da79a14610181575b600080fd5b3480156100ad57600080fd5b506100c860048036038101906100c39190610e84565b6102ca565b005b3480156100d657600080fd5b506100f160048036038101906100ec9190610f9d565b6103fd565b6040516100fe9190610fd9565b60405180910390f35b34801561011357600080fd5b5061012e60048036038101906101299190610f9d565b610421565b60405161013b919061100f565b60405180910390f35b34801561015057600080fd5b5061016b60048036038101906101669190610f9d565b610483565b604051610178919061100f565b60405180910390f35b34801561018d57600080fd5b506101a860048036038101906101a39190610f9d565b6104e5565b6040516101b8949392919061108c565b60405180910390f35b6101db60048036038101906101d691906110fd565b610555565b005b6101f760048036038101906101f29190610f9d565b61059f565b005b34801561020557600080fd5b50610220600480360381019061021b9190611156565b61061f565b005b34801561022e57600080fd5b5061024960048036038101906102449190610f9d565b61079d565b60405161025b9695949392919061127e565b60405180910390f35b34801561027057600080fd5b5061028b60048036038101906102869190610f9d565b610a81565b6040516102989190610fd9565b60405180910390f35b3480156102ad57600080fd5b506102c860048036038101906102c39190610f9d565b610aa5565b005b6102d386610483565b610312576040517f08c379a00000000000000000000000000000000000000000000000000000000081526004016103099061134e565b60405180910390fd5b6040518060c0016040528087815260200186815260200185815260200184815260200183815260200182815250600080888152602001908152602001600020600082015181600001556020820151816001019081610370919061157a565b506040820151816002019081610386919061157a565b50606082015181600301908161039c919061157a565b5060808201518160040190816103b2919061157a565b5060a08201518160050190816103c8919061157a565b509050506001869080600181540180825580915050600190039060005260206000200160009091909190915055505050505050565b6003818154811061040d57600080fd5b906000526020600020016000915090505481565b600080600090505b60038054905081101561047857826003828154811061044b5761044a61164c565b5b90600052602060002001540361046557600091505061047e565b8080610470906116aa565b915050610429565b50600190505b919050565b600080600090505b6001805490508110156104da5782600182815481106104ad576104ac61164c565b5b9060005260206000200154036104c75760009150506104e0565b80806104d2906116aa565b91505061048b565b50600190505b919050565b60026020528060005260406000206000915090508060000154908060010160009054906101000a900473ffffffffffffffffffffffffffffffffffffffff16908060020160009054906101000a900473ffffffffffffffffffffffffffffffffffffffff16908060030154905084565b8073ffffffffffffffffffffffffffffffffffffffff166108fc349081150290604051600060405180830381858888f1935050505015801561059b573d6000803e3d6000fd5b5050565b6002600082815260200190815260200160002060010160009054906101000a900473ffffffffffffffffffffffffffffffffffffffff1673ffffffffffffffffffffffffffffffffffffffff166108fc349081150290604051600060405180830381858888f1935050505015801561061b573d6000803e3d6000fd5b5050565b61062886610421565b610667576040517f08c379a000000000000000000000000000000000000000000000000000000000815260040161065e9061173e565b60405180910390fd5b60405180608001604052808781526020018673ffffffffffffffffffffffffffffffffffffffff1681526020018573ffffffffffffffffffffffffffffffffffffffff16815260200182815250600260008881526020019081526020016000206000820151816000015560208201518160010160006101000a81548173ffffffffffffffffffffffffffffffffffffffff021916908373ffffffffffffffffffffffffffffffffffffffff16021790555060408201518160020160006101000a81548173ffffffffffffffffffffffffffffffffffffffff021916908373ffffffffffffffffffffffffffffffffffffffff160217905550606082015181600301559050506003869080600181540180825580915050600190039060005260206000200160009091909190915055505050505050565b60006020528060005260406000206000915090508060000154908060010180546107c69061139d565b80601f01602080910402602001604051908101604052809291908181526020018280546107f29061139d565b801561083f5780601f106108145761010080835404028352916020019161083f565b820191906000526020600020905b81548152906001019060200180831161082257829003601f168201915b5050505050908060020180546108549061139d565b80601f01602080910402602001604051908101604052809291908181526020018280546108809061139d565b80156108cd5780601f106108a2576101008083540402835291602001916108cd565b820191906000526020600020905b8154815290600101906020018083116108b057829003601f168201915b5050505050908060030180546108e29061139d565b80601f016020809104026020016040519081016040528092919081815260200182805461090e9061139d565b801561095b5780601f106109305761010080835404028352916020019161095b565b820191906000526020600020905b81548152906001019060200180831161093e57829003601f168201915b5050505050908060040180546109709061139d565b80601f016020809104026020016040519081016040528092919081815260200182805461099c9061139d565b80156109e95780601f106109be576101008083540402835291602001916109e9565b820191906000526020600020905b8154815290600101906020018083116109cc57829003601f168201915b5050505050908060050180546109fe9061139d565b80601f0160208091040260200160405190810160405280929190818152602001828054610a2a9061139d565b8015610a775780601f10610a4c57610100808354040283529160200191610a77565b820191906000526020600020905b815481529060010190602001808311610a5a57829003601f168201915b5050505050905086565b60018181548110610a9157600080fd5b906000526020600020016000915090505481565b610aae81610483565b15610aee576040517f08c379a0000000000000000000000000000000000000000000000000000000008152600401610ae5906117aa565b60405180910390fd5b600080600090505b600180549050811015610b43578260018281548110610b1857610b1761164c565b5b906000526020600020015403610b3057809150610b43565b8080610b3b906116aa565b915050610af6565b5060008190505b60018080549050610b5b91906117ca565b811015610bc15760018082610b7091906117fe565b81548110610b8157610b8061164c565b5b906000526020600020015460018281548110610ba057610b9f61164c565b5b90600052602060002001819055508080610bb9906116aa565b915050610b4a565b506001805480610bd457610bd3611832565b5b600190038181906000526020600020016000905590556040518060c001604052806000815260200160405180602001604052806000815250815260200160405180602001604052806000815250815260200160405180602001604052806000815250815260200160405180602001604052806000815250815260200160405180602001604052806000815250815250600080848152602001908152602001600020600082015181600001556020820151816001019081610c94919061157a565b506040820151816002019081610caa919061157a565b506060820151816003019081610cc0919061157a565b506080820151816004019081610cd6919061157a565b5060a0820151816005019081610cec919061157a565b509050505050565b6000604051905090565b600080fd5b600080fd5b6000819050919050565b610d1b81610d08565b8114610d2657600080fd5b50565b600081359050610d3881610d12565b92915050565b600080fd5b600080fd5b6000601f19601f8301169050919050565b7f4e487b7100000000000000000000000000000000000000000000000000000000600052604160045260246000fd5b610d9182610d48565b810181811067ffffffffffffffff82111715610db057610daf610d59565b5b80604052505050565b6000610dc3610cf4565b9050610dcf8282610d88565b919050565b600067ffffffffffffffff821115610def57610dee610d59565b5b610df882610d48565b9050602081019050919050565b82818337600083830152505050565b6000610e27610e2284610dd4565b610db9565b905082815260208101848484011115610e4357610e42610d43565b5b610e4e848285610e05565b509392505050565b600082601f830112610e6b57610e6a610d3e565b5b8135610e7b848260208601610e14565b91505092915050565b60008060008060008060c08789031215610ea157610ea0610cfe565b5b6000610eaf89828a01610d29565b965050602087013567ffffffffffffffff811115610ed057610ecf610d03565b5b610edc89828a01610e56565b955050604087013567ffffffffffffffff811115610efd57610efc610d03565b5b610f0989828a01610e56565b945050606087013567ffffffffffffffff811115610f2a57610f29610d03565b5b610f3689828a01610e56565b935050608087013567ffffffffffffffff811115610f5757610f56610d03565b5b610f6389828a01610e56565b92505060a087013567ffffffffffffffff811115610f8457610f83610d03565b5b610f9089828a01610e56565b9150509295509295509295565b600060208284031215610fb357610fb2610cfe565b5b6000610fc184828501610d29565b91505092915050565b610fd381610d08565b82525050565b6000602082019050610fee6000830184610fca565b92915050565b60008115159050919050565b61100981610ff4565b82525050565b60006020820190506110246000830184611000565b92915050565b600073ffffffffffffffffffffffffffffffffffffffff82169050919050565b60006110558261102a565b9050919050565b6110658161104a565b82525050565b60006110768261102a565b9050919050565b6110868161106b565b82525050565b60006080820190506110a16000830187610fca565b6110ae602083018661105c565b6110bb604083018561107d565b6110c86060830184610fca565b95945050505050565b6110da8161104a565b81146110e557600080fd5b50565b6000813590506110f7816110d1565b92915050565b60006020828403121561111357611112610cfe565b5b6000611121848285016110e8565b91505092915050565b6111338161106b565b811461113e57600080fd5b50565b6000813590506111508161112a565b92915050565b60008060008060008060c0878903121561117357611172610cfe565b5b600061118189828a01610d29565b965050602061119289828a016110e8565b95505060406111a389828a01611141565b94505060606111b489828a01610d29565b935050608087013567ffffffffffffffff8111156111d5576111d4610d03565b5b6111e189828a01610e56565b92505060a06111f289828a01610d29565b9150509295509295509295565b600081519050919050565b600082825260208201905092915050565b60005b8381101561123957808201518184015260208101905061121e565b60008484015250505050565b6000611250826111ff565b61125a818561120a565b935061126a81856020860161121b565b61127381610d48565b840191505092915050565b600060c0820190506112936000830189610fca565b81810360208301526112a58188611245565b905081810360408301526112b98187611245565b905081810360608301526112cd8186611245565b905081810360808301526112e18185611245565b905081810360a08301526112f58184611245565b9050979650505050505050565b7f4f70496420726570656164000000000000000000000000000000000000000000600082015250565b6000611338600b8361120a565b915061134382611302565b602082019050919050565b600060208201905081810360008301526113678161132b565b9050919050565b7f4e487b7100000000000000000000000000000000000000000000000000000000600052602260045260246000fd5b600060028204905060018216806113b557607f821691505b6020821081036113c8576113c761136e565b5b50919050565b60008190508160005260206000209050919050565b60006020601f8301049050919050565b600082821b905092915050565b6000600883026114307fffffffffffffffffffffffffffffffffffffffffffffffffffffffffffffffff826113f3565b61143a86836113f3565b95508019841693508086168417925050509392505050565b6000819050919050565b600061147761147261146d84610d08565b611452565b610d08565b9050919050565b6000819050919050565b6114918361145c565b6114a561149d8261147e565b848454611400565b825550505050565b600090565b6114ba6114ad565b6114c5818484611488565b505050565b5b818110156114e9576114de6000826114b2565b6001810190506114cb565b5050565b601f82111561152e576114ff816113ce565b611508846113e3565b81016020851015611517578190505b61152b611523856113e3565b8301826114ca565b50505b505050565b600082821c905092915050565b600061155160001984600802611533565b1980831691505092915050565b600061156a8383611540565b9150826002028217905092915050565b611583826111ff565b67ffffffffffffffff81111561159c5761159b610d59565b5b6115a6825461139d565b6115b18282856114ed565b600060209050601f8311600181146115e457600084156115d2578287015190505b6115dc858261155e565b865550611644565b601f1984166115f2866113ce565b60005b8281101561161a578489015182556001820191506020850194506020810190506115f5565b868310156116375784890151611633601f891682611540565b8355505b6001600288020188555050505b505050505050565b7f4e487b7100000000000000000000000000000000000000000000000000000000600052603260045260246000fd5b7f4e487b7100000000000000000000000000000000000000000000000000000000600052601160045260246000fd5b60006116b582610d08565b91507fffffffffffffffffffffffffffffffffffffffffffffffffffffffffffffffff82036116e7576116e661167b565b5b600182019050919050565b7f436f496420726570656164000000000000000000000000000000000000000000600082015250565b6000611728600b8361120a565b9150611733826116f2565b602082019050919050565b600060208201905081810360008301526117578161171b565b9050919050565b7f4e6f204f70496400000000000000000000000000000000000000000000000000600082015250565b600061179460078361120a565b915061179f8261175e565b602082019050919050565b600060208201905081810360008301526117c381611787565b9050919050565b60006117d582610d08565b91506117e083610d08565b92508282039050818111156117f8576117f761167b565b5b92915050565b600061180982610d08565b915061181483610d08565b925082820190508082111561182c5761182b61167b565b5b92915050565b7f4e487b7100000000000000000000000000000000000000000000000000000000600052603160045260246000fdfea2646970667358221220bbb836a6a2b78a622793ca056f3a76051af55a250ede389f0ce26d9c61ad2f7b64736f6c63430008110033",
  "immutableReferences": {},
  "source": "// SPDX-License-Identifier: MIT\npragma solidity^ 0.8.17;\ncontract PoseManager{\n    struct Operator{\n        uint id;\n        string excuteContractIp;\n        string privateKey; \n        string commandIp;\n        string teeEncryptionKey;\n        string contractAddress;\n    }\n    struct Contract {\n        uint id;\n        address payable poolAddress;\n        address creationOperator;\n        uint operatorNums;  \n    }\n    mapping (uint => Operator)public  registeredOperators;\n    uint[] public  opratorNums;\n    mapping (uint => Contract) public  contracts;\n    uint[] public  contractNums;\n    function register(uint id,string memory excuteContractIp,string memory privateKey,string memory commandIp,string memory teeEncryptionKey,string memory contractAddress) public {\n        require(verifyOpRepeadId(id),\"OpId repead\");\n        registeredOperators[id]=Operator(id,excuteContractIp,privateKey,commandIp,teeEncryptionKey,contractAddress);\n        opratorNums.push(id);\n        \n    }\n    function initCreation(uint id,address payable poolAddress,address creationOperator,uint Oid,string memory contractAddress,\n    uint operatorNums) public {\n        require(verifyCoRepeadId(id),\"CoId repead\");\n        contracts[id]=Contract(id,poolAddress,creationOperator,operatorNums);\n        contractNums.push(id);\n\n    }\n    function watchDogResponse(uint id) public {\n        require(!verifyOpRepeadId(id),\"No OpId\");\n        uint index;\n        for(uint i=0;i<opratorNums.length;i++){\n            if(opratorNums[i]==id){\n                index=i;\n                break ;\n            }\n        }\n        for(uint i =index;i<opratorNums.length-1;i++){\n            opratorNums[i]=opratorNums[i+1];\n        }\n        opratorNums.pop();\n        registeredOperators[id]=Operator(0,\"\",\"\",\"\",\"\",\"\");\n    }\n    function depositToContract(uint id) public payable {\n        contracts[id].poolAddress.transfer(msg.value);\n    }\n    function withdraw(address payable receiver) public payable{\n        receiver.transfer(msg.value);\n    }\n    function verifyOpRepeadId(uint id) public view returns  (bool){\n        for(uint i=0;i<opratorNums.length;i++){\n            if(opratorNums[i]==id){\n                return false;\n            }\n        }\n        return true;\n    }\n     function verifyCoRepeadId(uint id) public view returns  (bool){\n        for(uint i=0;i<contractNums.length;i++){\n            if(contractNums[i]==id){\n                return false;\n            }\n        }\n        return true;\n    }   \n\n}",
  "sourcePath": "/home/guanfujun//ETH-Main/contracts/PoseManager.sol",
  "compiler": {
    "name": "solc",
    "version": "0.8.17+commit.8df45f5f.Emscripten.clang"
  },
  "schemaVersion": "3.4.16",
  "updatedAt": "2024-06-01T13:19:51.175Z",
  "devdoc": {
    "kind": "dev",
    "methods": {},
    "version": 1
  },
  "userdoc": {
    "kind": "user",
    "methods": {},
    "version": 1
  }
}