{
  "contractName": "Voting",
  "abi": [
    {
      "inputs": [
        {
          "internalType": "bytes2[]",
          "name": "candidateName",
          "type": "bytes2[]"
        }
      ],
      "stateMutability": "nonpayable",
      "type": "constructor"
    },
    {
      "inputs": [
        {
          "internalType": "uint256",
          "name": "",
          "type": "uint256"
        }
      ],
      "name": "candidateList",
      "outputs": [
        {
          "internalType": "bytes2",
          "name": "",
          "type": "bytes2"
        }
      ],
      "stateMutability": "view",
      "type": "function",
      "constant": true
    },
    {
      "inputs": [
        {
          "internalType": "bytes2",
          "name": "",
          "type": "bytes2"
        }
      ],
      "name": "votesReceived",
      "outputs": [
        {
          "internalType": "uint8",
          "name": "",
          "type": "uint8"
        }
      ],
      "stateMutability": "view",
      "type": "function",
      "constant": true
    },
    {
      "inputs": [
        {
          "internalType": "bytes2",
          "name": "candidate",
          "type": "bytes2"
        }
      ],
      "name": "totalVotesFor",
      "outputs": [
        {
          "internalType": "uint8",
          "name": "",
          "type": "uint8"
        }
      ],
      "stateMutability": "view",
      "type": "function",
      "constant": true
    },
    {
      "inputs": [
        {
          "internalType": "bytes2",
          "name": "candidate",
          "type": "bytes2"
        }
      ],
      "name": "voteForCandidate",
      "outputs": [],
      "stateMutability": "nonpayable",
      "type": "function"
    },
    {
      "inputs": [
        {
          "internalType": "bytes2",
          "name": "candidate",
          "type": "bytes2"
        }
      ],
      "name": "validCandidate",
      "outputs": [
        {
          "internalType": "bool",
          "name": "",
          "type": "bool"
        }
      ],
      "stateMutability": "view",
      "type": "function",
      "constant": true
    }
  ],
  "bytecode": "0x60806040523480156200001157600080fd5b50604051620009683803806200096883398181016040528101906200003791906200030c565b80600190805190602001906200004f92919062000057565b50506200035d565b82805482825590600052602060002090600f01601090048101928215620000f45791602002820160005b83821115620000c257835183826101000a81548161ffff021916908360f01c0217905550926020019260020160208160010104928301926001030262000081565b8015620000f25782816101000a81549061ffff0219169055600201602081600101049283019260010302620000c2565b505b50905062000103919062000107565b5090565b5b808211156200012257600081600090555060010162000108565b5090565b6000604051905090565b600080fd5b600080fd5b600080fd5b6000601f19601f8301169050919050565b7f4e487b7100000000000000000000000000000000000000000000000000000000600052604160045260246000fd5b6200018a826200013f565b810181811067ffffffffffffffff82111715620001ac57620001ab62000150565b5b80604052505050565b6000620001c162000126565b9050620001cf82826200017f565b919050565b600067ffffffffffffffff821115620001f257620001f162000150565b5b602082029050602081019050919050565b600080fd5b60007fffff00000000000000000000000000000000000000000000000000000000000082169050919050565b6200023f8162000208565b81146200024b57600080fd5b50565b6000815190506200025f8162000234565b92915050565b60006200027c6200027684620001d4565b620001b5565b90508083825260208201905060208402830185811115620002a257620002a162000203565b5b835b81811015620002cf5780620002ba88826200024e565b845260208401935050602081019050620002a4565b5050509392505050565b600082601f830112620002f157620002f06200013a565b5b81516200030384826020860162000265565b91505092915050565b60006020828403121562000325576200032462000130565b5b600082015167ffffffffffffffff81111562000346576200034562000135565b5b6200035484828501620002d9565b91505092915050565b6105fb806200036d6000396000f3fe608060405234801561001057600080fd5b50600436106100575760003560e01c80630c4280851461005c5780633ecf28361461008c57806346ba1407146100a8578063b13c744b146100d8578063d121a82014610108575b600080fd5b610076600480360381019061007191906103c3565b610138565b604051610083919061040c565b60405180910390f35b6100a660048036038101906100a191906103c3565b6101b5565b005b6100c260048036038101906100bd91906103c3565b610253565b6040516100cf9190610442565b60405180910390f35b6100f260048036038101906100ed9190610493565b61030f565b6040516100ff91906104cf565b60405180910390f35b610122600480360381019061011d91906103c3565b610346565b60405161012f919061040c565b60405180910390f35b600061014382610253565b61014c57600080fd5b600080837dffffffffffffffffffffffffffffffffffffffffffffffffffffffffffff19167dffffffffffffffffffffffffffffffffffffffffffffffffffffffffffff1916815260200190815260200160002060009054906101000a900460ff169050919050565b6101be81610253565b6101c757600080fd5b6001600080837dffffffffffffffffffffffffffffffffffffffffffffffffffffffffffff19167dffffffffffffffffffffffffffffffffffffffffffffffffffffffffffff1916815260200190815260200160002060008282829054906101000a900460ff166102389190610519565b92506101000a81548160ff021916908360ff16021790555050565b600080600090505b60018054905081101561030457827dffffffffffffffffffffffffffffffffffffffffffffffffffffffffffff19166001828154811061029e5761029d61054e565b5b90600052602060002090601091828204019190066002029054906101000a900460f01b7dffffffffffffffffffffffffffffffffffffffffffffffffffffffffffff1916036102f157600191505061030a565b80806102fc9061057d565b91505061025b565b50600090505b919050565b6001818154811061031f57600080fd5b9060005260206000209060109182820401919006600202915054906101000a900460f01b81565b60006020528060005260406000206000915054906101000a900460ff1681565b600080fd5b60007fffff00000000000000000000000000000000000000000000000000000000000082169050919050565b6103a08161036b565b81146103ab57600080fd5b50565b6000813590506103bd81610397565b92915050565b6000602082840312156103d9576103d8610366565b5b60006103e7848285016103ae565b91505092915050565b600060ff82169050919050565b610406816103f0565b82525050565b600060208201905061042160008301846103fd565b92915050565b60008115159050919050565b61043c81610427565b82525050565b60006020820190506104576000830184610433565b92915050565b6000819050919050565b6104708161045d565b811461047b57600080fd5b50565b60008135905061048d81610467565b92915050565b6000602082840312156104a9576104a8610366565b5b60006104b78482850161047e565b91505092915050565b6104c98161036b565b82525050565b60006020820190506104e460008301846104c0565b92915050565b7f4e487b7100000000000000000000000000000000000000000000000000000000600052601160045260246000fd5b6000610524826103f0565b915061052f836103f0565b9250828201905060ff811115610548576105476104ea565b5b92915050565b7f4e487b7100000000000000000000000000000000000000000000000000000000600052603260045260246000fd5b60006105888261045d565b91507fffffffffffffffffffffffffffffffffffffffffffffffffffffffffffffffff82036105ba576105b96104ea565b5b60018201905091905056fea264697066735822122022a277c0f9a67287e45e2df143ee4f8bdafffc88aa7bc7c3ee28facb6778f67b64736f6c63430008110033",
  "immutableReferences": {},
  "source": "// SPDX-License-Identifier: MIT\npragma solidity 0.8.17;\ncontract Voting{\n    mapping (bytes2=>uint8)public votesReceived;\n    bytes2[] public candidateList;\n\n    constructor(bytes2[] memory candidateName) {\n        candidateList=candidateName;\n    }\n\n    //\n    function totalVotesFor(bytes2 candidate)view public returns(uint8){\n        require(validCandidate(candidate));\n        return votesReceived[candidate];\n    }\n\n    //\n    function  voteForCandidate(bytes2 candidate)public{\n        require(validCandidate(candidate));\n        votesReceived[candidate]+=1;\n    }\n\n    //\n    function validCandidate(bytes2 candidate) view public returns(bool){\n        for(uint i=0;i<candidateList.length;i++){\n            if(candidateList[i]==candidate)\n                return true;\n        }\n        return false;\n    }\n}\n",
  "sourcePath": "/home/guanfujun/voting-truffle-master (1)/1_simple_voting_by_truffle_dapp/contracts/Voting.sol",
  "compiler": {
    "name": "solc",
    "version": "0.8.17+commit.8df45f5f.Emscripten.clang"
  },
  "schemaVersion": "3.4.16",
  "updatedAt": "2024-04-13T12:43:34.954Z",
  "networkType": "ethereum",
  "devdoc": {
    "kind": "dev",
    "methods": {},
    "version": 1
  },
  "userdoc": {
    "kind": "user",
    "methods": {},
    "version": 1
  }
}