{
  "contractName": "Voting",
  "abi": [
    {
      "inputs": [
        {
          "internalType": "string[]",
          "name": "candidateName",
          "type": "string[]"
        }
      ],
      "stateMutability": "nonpayable",
      "type": "constructor"
    },
    {
      "inputs": [
        {
          "internalType": "uint256",
          "name": "",
          "type": "uint256"
        }
      ],
      "name": "candidateList",
      "outputs": [
        {
          "internalType": "string",
          "name": "",
          "type": "string"
        }
      ],
      "stateMutability": "view",
      "type": "function",
      "constant": true
    },
    {
      "inputs": [
        {
          "internalType": "uint256",
          "name": "",
          "type": "uint256"
        }
      ],
      "name": "data",
      "outputs": [
        {
          "internalType": "string",
          "name": "",
          "type": "string"
        }
      ],
      "stateMutability": "view",
      "type": "function",
      "constant": true
    },
    {
      "inputs": [],
      "name": "sum",
      "outputs": [
        {
          "internalType": "uint256",
          "name": "",
          "type": "uint256"
        }
      ],
      "stateMutability": "view",
      "type": "function",
      "constant": true
    },
    {
      "inputs": [
        {
          "internalType": "string",
          "name": "",
          "type": "string"
        }
      ],
      "name": "votesReceived",
      "outputs": [
        {
          "internalType": "uint8",
          "name": "",
          "type": "uint8"
        }
      ],
      "stateMutability": "view",
      "type": "function",
      "constant": true
    },
    {
      "inputs": [
        {
          "internalType": "string",
          "name": "candidate",
          "type": "string"
        }
      ],
      "name": "totalVotesFor",
      "outputs": [
        {
          "internalType": "uint8",
          "name": "",
          "type": "uint8"
        }
      ],
      "stateMutability": "view",
      "type": "function",
      "constant": true
    },
    {
      "inputs": [
        {
          "internalType": "string",
          "name": "candidate",
          "type": "string"
        }
      ],
      "name": "voteForCandidate",
      "outputs": [],
      "stateMutability": "nonpayable",
      "type": "function"
    },
    {
      "inputs": [
        {
          "internalType": "string",
          "name": "candidate",
          "type": "string"
        }
      ],
      "name": "addCandidate",
      "outputs": [],
      "stateMutability": "nonpayable",
      "type": "function"
    },
    {
      "inputs": [],
      "name": "candidateNums",
      "outputs": [
        {
          "internalType": "uint256",
          "name": "",
          "type": "uint256"
        }
      ],
      "stateMutability": "view",
      "type": "function",
      "constant": true
    }
  ],
  "bytecode": "0x608060405260006003553480156200001657600080fd5b50604051620012f7380380620012f783398181016040528101906200003c9190620003d8565b8060019080519060200190620000549291906200005c565b50506200075b565b828054828255906000526020600020908101928215620000a9579160200282015b82811115620000a857825182908162000097919062000674565b50916020019190600101906200007d565b5b509050620000b89190620000bc565b5090565b5b80821115620000e05760008181620000d69190620000e4565b50600101620000bd565b5090565b508054620000f29062000463565b6000825580601f1062000106575062000127565b601f0160209004906000526020600020908101906200012691906200012a565b5b50565b5b80821115620001455760008160009055506001016200012b565b5090565b6000604051905090565b600080fd5b600080fd5b600080fd5b6000601f19601f8301169050919050565b7f4e487b7100000000000000000000000000000000000000000000000000000000600052604160045260246000fd5b620001ad8262000162565b810181811067ffffffffffffffff82111715620001cf57620001ce62000173565b5b80604052505050565b6000620001e462000149565b9050620001f28282620001a2565b919050565b600067ffffffffffffffff82111562000215576200021462000173565b5b602082029050602081019050919050565b600080fd5b600080fd5b600067ffffffffffffffff8211156200024e576200024d62000173565b5b620002598262000162565b9050602081019050919050565b60005b838110156200028657808201518184015260208101905062000269565b60008484015250505050565b6000620002a9620002a38462000230565b620001d8565b905082815260208101848484011115620002c857620002c76200022b565b5b620002d584828562000266565b509392505050565b600082601f830112620002f557620002f46200015d565b5b81516200030784826020860162000292565b91505092915050565b6000620003276200032184620001f7565b620001d8565b905080838252602082019050602084028301858111156200034d576200034c62000226565b5b835b818110156200039b57805167ffffffffffffffff8111156200037657620003756200015d565b5b808601620003858982620002dd565b855260208501945050506020810190506200034f565b5050509392505050565b600082601f830112620003bd57620003bc6200015d565b5b8151620003cf84826020860162000310565b91505092915050565b600060208284031215620003f157620003f062000153565b5b600082015167ffffffffffffffff81111562000412576200041162000158565b5b6200042084828501620003a5565b91505092915050565b600081519050919050565b7f4e487b7100000000000000000000000000000000000000000000000000000000600052602260045260246000fd5b600060028204905060018216806200047c57607f821691505b60208210810362000492576200049162000434565b5b50919050565b60008190508160005260206000209050919050565b60006020601f8301049050919050565b600082821b905092915050565b600060088302620004fc7fffffffffffffffffffffffffffffffffffffffffffffffffffffffffffffffff82620004bd565b620005088683620004bd565b95508019841693508086168417925050509392505050565b6000819050919050565b6000819050919050565b6000620005556200054f620005498462000520565b6200052a565b62000520565b9050919050565b6000819050919050565b620005718362000534565b6200058962000580826200055c565b848454620004ca565b825550505050565b600090565b620005a062000591565b620005ad81848462000566565b505050565b5b81811015620005d557620005c960008262000596565b600181019050620005b3565b5050565b601f8211156200062457620005ee8162000498565b620005f984620004ad565b8101602085101562000609578190505b620006216200061885620004ad565b830182620005b2565b50505b505050565b600082821c905092915050565b6000620006496000198460080262000629565b1980831691505092915050565b600062000664838362000636565b9150826002028217905092915050565b6200067f8262000429565b67ffffffffffffffff8111156200069b576200069a62000173565b5b620006a7825462000463565b620006b4828285620005d9565b600060209050601f831160018114620006ec5760008415620006d7578287015190505b620006e3858262000656565b86555062000753565b601f198416620006fc8662000498565b60005b828110156200072657848901518255600182019150602085019450602081019050620006ff565b8683101562000746578489015162000742601f89168262000636565b8355505b6001600288020188555050505b505050505050565b610b8c806200076b6000396000f3fe608060405234801561001057600080fd5b50600436106100885760003560e01c8063a551f28f1161005b578063a551f28f14610127578063b13c744b14610145578063e89927ef14610175578063f0ba84401461019157610088565b8063462e91ec1461008d5780634a3bf377146100a9578063853255cc146100d95780638d4b44d9146100f7575b600080fd5b6100a760048036038101906100a291906105cb565b6101c1565b005b6100c360048036038101906100be91906105cb565b6101f9565b6040516100d09190610630565b60405180910390f35b6100e161022d565b6040516100ee9190610664565b60405180910390f35b610111600480360381019061010c91906105cb565b610233565b60405161011e9190610630565b60405180910390f35b61012f610269565b60405161013c9190610664565b60405180910390f35b61015f600480360381019061015a91906106ab565b610276565b60405161016c9190610757565b60405180910390f35b61018f600480360381019061018a91906105cb565b610322565b005b6101ab60048036038101906101a691906106ab565b6103c5565b6040516101b89190610757565b60405180910390f35b6001819080600181540180825580915050600190039060005260206000200160009091909190915090816101f59190610985565b5050565b6000808260405161020a9190610a93565b908152602001604051809103902060009054906101000a900460ff169050919050565b60035481565b6000818051602081018201805184825260208301602085012081835280955050505050506000915054906101000a900460ff1681565b6000600180549050905090565b6001818154811061028657600080fd5b9060005260206000200160009150905080546102a1906107a8565b80601f01602080910402602001604051908101604052809291908181526020018280546102cd906107a8565b801561031a5780601f106102ef5761010080835404028352916020019161031a565b820191906000526020600020905b8154815290600101906020018083116102fd57829003601f168201915b505050505081565b6002819080600181540180825580915050600190039060005260206000200160009091909190915090816103569190610985565b506003600081548092919061036a90610ad9565b919050555060016000826040516103819190610a93565b908152602001604051809103902060008282829054906101000a900460ff166103aa9190610b21565b92506101000a81548160ff021916908360ff16021790555050565b600281815481106103d557600080fd5b9060005260206000200160009150905080546103f0906107a8565b80601f016020809104026020016040519081016040528092919081815260200182805461041c906107a8565b80156104695780601f1061043e57610100808354040283529160200191610469565b820191906000526020600020905b81548152906001019060200180831161044c57829003601f168201915b505050505081565b6000604051905090565b600080fd5b600080fd5b600080fd5b600080fd5b6000601f19601f8301169050919050565b7f4e487b7100000000000000000000000000000000000000000000000000000000600052604160045260246000fd5b6104d88261048f565b810181811067ffffffffffffffff821117156104f7576104f66104a0565b5b80604052505050565b600061050a610471565b905061051682826104cf565b919050565b600067ffffffffffffffff821115610536576105356104a0565b5b61053f8261048f565b9050602081019050919050565b82818337600083830152505050565b600061056e6105698461051b565b610500565b90508281526020810184848401111561058a5761058961048a565b5b61059584828561054c565b509392505050565b600082601f8301126105b2576105b1610485565b5b81356105c284826020860161055b565b91505092915050565b6000602082840312156105e1576105e061047b565b5b600082013567ffffffffffffffff8111156105ff576105fe610480565b5b61060b8482850161059d565b91505092915050565b600060ff82169050919050565b61062a81610614565b82525050565b60006020820190506106456000830184610621565b92915050565b6000819050919050565b61065e8161064b565b82525050565b60006020820190506106796000830184610655565b92915050565b6106888161064b565b811461069357600080fd5b50565b6000813590506106a58161067f565b92915050565b6000602082840312156106c1576106c061047b565b5b60006106cf84828501610696565b91505092915050565b600081519050919050565b600082825260208201905092915050565b60005b838110156107125780820151818401526020810190506106f7565b60008484015250505050565b6000610729826106d8565b61073381856106e3565b93506107438185602086016106f4565b61074c8161048f565b840191505092915050565b60006020820190508181036000830152610771818461071e565b905092915050565b7f4e487b7100000000000000000000000000000000000000000000000000000000600052602260045260246000fd5b600060028204905060018216806107c057607f821691505b6020821081036107d3576107d2610779565b5b50919050565b60008190508160005260206000209050919050565b60006020601f8301049050919050565b600082821b905092915050565b60006008830261083b7fffffffffffffffffffffffffffffffffffffffffffffffffffffffffffffffff826107fe565b61084586836107fe565b95508019841693508086168417925050509392505050565b6000819050919050565b600061088261087d6108788461064b565b61085d565b61064b565b9050919050565b6000819050919050565b61089c83610867565b6108b06108a882610889565b84845461080b565b825550505050565b600090565b6108c56108b8565b6108d0818484610893565b505050565b5b818110156108f4576108e96000826108bd565b6001810190506108d6565b5050565b601f8211156109395761090a816107d9565b610913846107ee565b81016020851015610922578190505b61093661092e856107ee565b8301826108d5565b50505b505050565b600082821c905092915050565b600061095c6000198460080261093e565b1980831691505092915050565b6000610975838361094b565b9150826002028217905092915050565b61098e826106d8565b67ffffffffffffffff8111156109a7576109a66104a0565b5b6109b182546107a8565b6109bc8282856108f8565b600060209050601f8311600181146109ef57600084156109dd578287015190505b6109e78582610969565b865550610a4f565b601f1984166109fd866107d9565b60005b82811015610a2557848901518255600182019150602085019450602081019050610a00565b86831015610a425784890151610a3e601f89168261094b565b8355505b6001600288020188555050505b505050505050565b600081905092915050565b6000610a6d826106d8565b610a778185610a57565b9350610a878185602086016106f4565b80840191505092915050565b6000610a9f8284610a62565b915081905092915050565b7f4e487b7100000000000000000000000000000000000000000000000000000000600052601160045260246000fd5b6000610ae48261064b565b91507fffffffffffffffffffffffffffffffffffffffffffffffffffffffffffffffff8203610b1657610b15610aaa565b5b600182019050919050565b6000610b2c82610614565b9150610b3783610614565b9250828201905060ff811115610b5057610b4f610aaa565b5b9291505056fea2646970667358221220d45cbb16624c0d5e092202f41f490ced95171d38e26fe08e52197666a886b5ac64736f6c63430008110033",
  "immutableReferences": {},
  "source": "// SPDX-License-Identifier: MIT\npragma solidity^ 0.8.17;\ncontract Voting{\n    mapping (string=>uint8)public votesReceived;\n    string[] public candidateList;\n    string[] public data;\n    uint public sum=0;\n\n    constructor(string[] memory candidateName) {\n        candidateList=candidateName;\n    }\n\n    //\n    function totalVotesFor(string  memory candidate)view public returns(uint8){\n        return votesReceived[candidate];\n    }\n\n    //\n    function  voteForCandidate(string memory candidate)public  {\n        data.push(candidate);\n        sum++;\n        votesReceived[candidate]+=1;\n    }\n\n    //\n    function addCandidate(string memory candidate) public {\n        candidateList.push(candidate);\n    }\n    function candidateNums() view public returns(uint256){\n        return candidateList.length;\n\n    }\n\n}\n",
  "sourcePath": "/home/guanfujun//tee1/poseVoting/contracts/Voting.sol",
  "compiler": {
    "name": "solc",
    "version": "0.8.17+commit.8df45f5f.Emscripten.clang"
  },
  "schemaVersion": "3.4.16",
  "updatedAt": "2024-05-28T15:23:12.020Z",
  "networkType": "ethereum",
  "devdoc": {
    "kind": "dev",
    "methods": {},
    "version": 1
  },
  "userdoc": {
    "kind": "user",
    "methods": {},
    "version": 1
  }
}